:020000040800F2
:10000000D00500206D1D0008650200086702000889
:100010006B0200086F020008730200080000000075
:10002000000000000000000000000000770200084F
:1000300079020008000000007B0200087D02000831
:10004000871D0008871D0008871D0008871D000800
:10005000871D0008871D0008DB010008871D0008B8
:10006000871D0008871D0008FB010008871D000888
:10007000871D0008871D0008871D0008871D0008D0
:10008000871D0008871D0008871D0008871D0008C0
:10009000871D0008871D0008871D000859120008E9
:1000A000871D0008871D0008871D0008871D0008A0
:1000B000130E0008871D0008290E0008871D000880
:1000C000871D0008871D0008871D0008871D000880
:1000D000871D0008871D000863080008B706000890
:1000E0001B020008871D0008871D0008DFF80CD0E0
:1000F00007F022FB0048004701010008D00500205E
:1001000000F0AEF900F016FA00F0D4FB00F0F9FBB5
:100110004FF4E13000F06CFA00F094FC00F0C6FD02
:1001200000F00DFE4FF4165000F00AFB41F61F419F
:10013000002000F08BFE00F0DFFE01F0EFFD40F24A
:10014000CF2140F2CF7000F033FC03F038FC1021D7
:10015000394802F026F802E0142000F0BEF905F05C
:100160007BFE0028F8D119E000231A4619461846EC
:1001700001F0C9F84FF4005030494861142000F0F4
:10018000ACF94FF400502D49086100BF2C48007EA7
:100190000028FBD001202B4948710870294840797C
:1001A0000028E1D02648007E012804D0022806D08D
:1001B00003280CD107E024A000F06AFA08E025A08B
:1001C00000F066FA04E020A000F062FA00E000BF50
:1001D00000BF01E001F082FAFCE710B50A2000F050
:1001E0007CF901211E4801F0C2FF10B90120144919
:1001F0000876012001F0BFFE10BD10B50A2000F006
:100200006CF91021164801F0B2FF10B902200C4918
:100210000876102001F0AFFE10BD10B50A2000F0E6
:100220005CF94FF48051044801F0A1FF4FF4805075
:1002300001F0A1FE10BD00000008014000100140C7
:10024000A0010020500000207374617274636E740A
:10025000310000007374617274636E7432000000C8
:10026000000C0140704700BFFEE700BFFEE700BF83
:10027000FEE700BFFEE77047704770477047000019
:100280000CB50020019000906C48006840F480306C
:100290006A49086000BF6948006800F400300090B7
:1002A0000198401C0190009818B90198B0F5A06F12
:1002B000F1D16248006800F4003010B101200090D4
:1002C00001E0002000900098012843D15C480068BC
:1002D00040F010005A4908600846006820F003000A
:1002E00008600846006840F0020008605348406813
:1002F000524948600846406848600846406840F4F3
:10030000806048600846406820F47C1048600846D9
:10031000406840F4E81048600846006840F080708B
:10032000086000BF4548006800F000700028F9D060
:100330004248406820F00300404948600846406851
:1003400040F00200486000BF3C48406800F00C00EC
:100350000828F9D10CBD10B5FFF792FF10BD10B5FC
:100360003648006840F0010034490860084640689B
:10037000344908403149486008460068324908401D
:100380002E4908600846006820F48020086008466E
:10039000406820F4FE0048604FF41F008860FFF7BB
:1003A000DAFF4FF000602949086010BD10B5002148
:1003B00000200022214B5B6803F00C0121B10429CD
:1003C00006D0082928D107E0214B224C236027E0E2
:1003D0001F4B204C236023E0184B5B6803F4701024
:1003E000164B5B6803F48032022303EB904022B982
:1003F000194B4343174C23600DE0104B5B6803F42B
:10040000003323B1144B4343124C236003E0104BE1
:100410004343104C236003E00D4B0E4C236000BFA0
:1004200000BF064B5B68C3F303130C4CE15C094B44
:100430001B68CB40074C236010BD00000010024039
:10044000002002400000FFF8FFFFF6FE08ED00E08C
:1004500000127A000000002000093D000400002086
:1004600010B56FF0040001F0E2FC2E4800682E4940
:10047000B0FBF1F02D4908700846007800EB400110
:10048000C1EBC0104FF6FF7101EAC0002849088097
:1004900010BD0146254A12784A434FF0E0235A61C5
:1004A00000229A611A46126942F001021A6100BFE5
:1004B0004FF0E022106900F001021AB100F480321E
:1004C000002AF5D04FF0E022126922F001024FF02D
:1004D000E0231A6100229A6170470146144A12888B
:1004E0004A434FF0E0235A6100229A611A4612698A
:1004F00042F001021A6100BF4FF0E022106900F0E3
:1005000001021AB100F48032002AF5D04FF0E02247
:10051000126922F001024FF0E0231A6100229A6171
:10052000704700000000002000127A001400002034
:100530001600002008B54FF4A06001F029FC172038
:100540008DF8000001208DF8030000208DF80100D7
:1005500001208DF80200684601F01FFC06208DF88E
:10056000000001208DF8030000208DF8010002201A
:100570008DF80200684601F010FC0A208DF800009A
:1005800001208DF8030000208DF8010003208DF874
:100590000200684601F001FC28208DF800000120CF
:1005A0008DF803008DF8010000208DF802006846E8
:1005B00001F0F3FB26208DF8000000208DF80100EB
:1005C0008DF8020001208DF80300684601F0E5FB7C
:1005D00027208DF8000000208DF801008DF8020022
:1005E00001208DF80300684601F0D7FB08BD00002C
:1005F00010B586B004460121082001F0E1FF012179
:10060000880401F0EAFF4FF48060ADF81400182070
:100610008DF8170003208DF8160005A93F4801F05A
:1006200013FD4FF40060ADF8140004208DF817009E
:1006300005A93A4801F008FD01940020ADF8080032
:10064000ADF80A00ADF810000C20ADF80E00002047
:10065000ADF80C0001A9324802F067FF012240F218
:1006600025512F4802F0F9FF01212D4802F0E9FF42
:1006700006B010BD10B504462146294803F04EF8D7
:1006800000BF8021264803F0B7F80028F9D010BD3C
:1006900010B504460BE000BF4021214803F0ACF840
:1006A0000028F9D014F8011B1D4803F037F8207812
:1006B0000028F0D110BD10B540F22551184803F0C4
:1006C000B1F888B1164803F02DF81649164A127889
:1006D000885415480078401C134908700846007873
:1006E000802801DD0020087010BD10B50FA10D4855
:1006F00006F011FC88B10EA10A4806F025FC28B9C5
:1007000001200D49087540030C4948610020064945
:1007100008708021034806F0F3FB10BD000C014077
:1007200000480040C400002018000020656E6400EE
:1007300073746F70656E6400A001002000100140AA
:1007400010B586B004460121480401F046FF01219E
:10075000042001F035FF18208DF817000420ADF8B3
:10076000140003208DF8160005A94D4801F06CFC1B
:100770000820ADF8140004208DF8170005A948489A
:1007800001F062FC01940020ADF810000C20ADF8DF
:100790000E000020ADF80C00ADF80A00ADF808001E
:1007A00001A9404802F0C1FE012240F225513D4816
:1007B00002F053FF01213B4802F043FF06B010BD99
:1007C00010B504462146374802F0A8FF00BF40217B
:1007D000344803F011F80128F9D110BD70B5044672
:1007E000204606F0AAFB86B2002505E014F8010BAE
:1007F000FFF7E6FF681C85B2B542F7DB70BD70B548
:1008000004460D460BE000BF4021264802F0F4FFED
:100810000028F9D02178234802F080FF641C281EAC
:10082000A5F10105EFD170BD70B504460D46E1B2EA
:100830001C4802F073FF00BF40211A4802F0DCFFA1
:100840000028F9D0204670BD10B5044600BF202115
:10085000144802F0D1FF0028F9D0124802F062FFDC
:1008600010BD10B540F225510E4802F0DBFFB0B1CB
:100870000C4802F057FFC4B20B48007878B90B4817
:100880000B49097844540A480078401C084908700C
:10089000232C04D10020087001200349087010BDEA
:1008A00000080140004400401900002044010020DD
:1008B0001A00002008B50121142001F081FE10204B
:1008C0008DF80300ADF8000003208DF802006946A2
:1008D000344801F0B9FB1021324801F062FC1020CD
:1008E0008DF803004002ADF8000003208DF80200EF
:1008F00069462D4801F0A8FB4FF400502A490861D1
:1009000008BD0EB501210C2001F05AFE0121084658
:1009100001F056FE4FF48050ADF8000048208DF8ED
:10092000030069461F4801F08FFB1120ADF800005D
:1009300048208DF8030069461C4801F085FB002122
:10094000012001F097FC0120019000208DF80800A3
:100950000C208DF8090001A801F096FA042101206D
:1009600001F088FC1020019000208DF808000C2078
:100970008DF8090001A801F087FA0C21002001F090
:1009800079FC4FF48050019000208DF808000C2075
:100990008DF8090001208DF80A0001A801F074FA11
:1009A0000EBD00000008014000100140000C014095
:1009B00030B589B005460C460121022001F00DFE3C
:1009C0000121052001F0FCFD4020ADF82000182099
:1009D0008DF8230003208DF8220008A9174801F0A4
:1009E00033FB0020ADF81A00ADF81600ADF8185032
:1009F000ADF8144005A9124801F01AFF7020ADF8B7
:100A000004000020ADF80C000120ADF8060001A99B
:100A10000B4801F04AFF0821094802F095FB01212B
:100A2000074802F061FB0121054802F05DFA40F23F
:100A30003A71034802F0F0FC09B030BD00080140F3
:100A40000004004008B50121082001F0B9FD102084
:100A50008DF803004FF47040ADF8000003208DF8CE
:100A600002006946884801F0EFFA08BD70B50446F7
:100A70000D4641F664112068884201DB084620607B
:100A800082492068884201DC0846206041F66411F2
:100A90002868884201DB084628607C49286888422B
:100AA00001DC084628607A4988687A4906F03CFDEE
:100AB00001D8784809E076498868774906F02AFD28
:100AC00001D8754801E0724880687149886070BD3E
:100AD0000146002901DD0A4600E04A4210467047FF
:100AE00030B51346002807DD01226C4C226000223D
:100AF0006B4CC4F8B4210FE0002807DA0022674CE1
:100B000022600122664CC4F8B42105E00022634C47
:100B10002260634CC4F8B421002908DD01225F4C37
:100B20000834226000225E4CC4F8BC2111E0002988
:100B300008DA0022594C083422600122584CC4F8CB
:100B4000BC2106E00022554C08342260544CC4F805
:100B5000BC21021E01DB144600E05442514D2C80A2
:100B60000A1E01DB144600E054424E4D08352C802D
:100B700030BD10B501214B48383802F0B5F90122DB
:100B800004214848383802F0B4FB01220C214548C2
:100B9000383802F0AEFB10BD10B50021414838389E
:100BA00002F0A2F9002204213E48383802F0A1FBED
:100BB00000220C213B48383802F09BFB10BD70B579
:100BC00004460D46002D0ADD4FF480512E4801F0F9
:100BD000E8FA4FF400512C4801F0E5FA16E0002D38
:100BE0000ADA4FF40051284801F0DBFA4FF4805143
:100BF000254801F0D8FA09E04FF40051224801F0ED
:100C0000D2FA4FF48051204801F0CDFA002C0ADDD1
:100C10004FF480411C4801F0C4FA4FF400411A48D7
:100C200001F0C1FA16E0002C0ADA4FF40041164830
:100C300001F0B7FA4FF48041134801F0B4FA09E02B
:100C40004FF48041104801F0AEFA4FF400410E48D5
:100C500001F0A9FA0E49886806F019FC86B23146FF
:100C6000114802F0D9FB201E01DB014600E04142A1
:100C70000C4A1180281E01DB014600E04142094A6E
:100C80000832118070BD0000000C01409CE6FFFF9F
:100C9000A00100200080ED440000E144B081214229
:100CA00000802142382C01400004004000B587B08C
:100CB0000121042001F084FC0121084601F08DFC93
:100CC00004208DF81B000320ADF8180006A95C482D
:100CD00001F0BAF903A802F0D7F80020ADF812002D
:100CE000ADF80E004FF6FF70ADF810000020ADF823
:100CF0000C0003A94FF0804001F09AFD00231A4632
:100D000003214FF0804002F0A2F9684602F0CFF8CC
:100D10000A20ADF808006946400702F01CF80122DD
:100D20001146900702F0FBF800214FF0804002F0DE
:100D30006FFB0121880702F0D7F807B000BD00B5AE
:100D400087B00121082001F03BFC0121042001F0C3
:100D500044FC04208DF81B00C020ADF8180006A943
:100D6000384801F071F903A802F08EF80020ADF8C0
:100D70001200ADF80E004FF6FF70ADF81000002025
:100D8000ADF80C0003A9304801F052FD00231A46CB
:100D900003212D4802F05BF9684602F088F80A202A
:100DA000ADF808006946284801F0D5FF0121264822
:100DB00002F060FB01221146234802F0B0F8002146
:100DC000214802F025FB01211F4802F08DF807B0F1
:100DD00000BD70B50546022D02D0042D14D10AE0E5
:100DE0004FF0804002F037FB04B200214FF080400A
:100DF00002F00EFB0AE0144802F02DFB04B20021C1
:100E0000114802F005FB01E0002400BF00BF2046AE
:100E100070BD10B50121880702F02FFB18B1012128
:100E2000880702F03BFB10BD10B50121064802F017
:100E300024FB18B10121044802F030FB10BD000072
:100E400000080140000C01400008004030B589B0A6
:100E500004460D46012140F6050001F0B1FB1820C3
:100E60008DF823004FF42060ADF8200003208DF8AA
:100E7000220008A91E4801F0E7F805A802F004F8CE
:100E80000020ADF81A00ADF81600ADF81850ADF816
:100E9000144005A9174801F0CBFC6020ADF8040010
:100EA0000020ADF80C000120ADF806000020ADF8E0
:100EB0000A0001A90F4801F03AFD01A90D4801F00F
:100EC000CEFD01210B4802F01BF80821094802F071
:100ED00044F90821074802F056F90121054802F0BB
:100EE00003F90121034801F0FFFF09B030BD000004
:100EF00000080140002C0140BE48BF4908600020A6
:100F00004860BE488860BE48C860BE48086100208E
:100F10004861BB484862BB4888620020C86270478D
:100F20002DE9F04705460C46B7480460016828469D
:100F300006F077F8B549086008460168B4480068CB
:100F400006F01DF8B2490860B2480168AF48006871
:100F500006F067F88046A8488168404606F067F8C2
:100F60000646A5494868AA49096806F060F880461F
:100F7000A1490868A549096806F059F88146414623
:100F800005F0FDFF0746314605F0F9FFA24908606C
:100F90009E4800689F4908609F480068BDE8F08748
:100FA00070B500249D4A51681068FFF7B9FF0446E8
:100FB0009449204606F03BF80646994906F069F840
:100FC0000546984905F0DBFF9449886070BD2DE91E
:100FD000F041044688488169204606F025F8924988
:100FE00008604FF07C519048006806F093FA09D2EF
:100FF0004FF03F418C48006806F096FA02D200207C
:1010000089490860884801688848006805F0B7FF8A
:101010008649086086498548006806F085FA03D24B
:101020008348824908600BE082498048006806F0E6
:1010300071FA03D27F487D49086001E07B4800686F
:101040007A4908607C4801687748006805F0E9FF44
:10105000074669484169384605F0E9FF0546664993
:1010600008697249096805F0E2FF07466249C868E5
:101070006D49096805F0DBFF8046394605F07FFFC2
:101080000646294605F07BFF6C4908606648006803
:101090006949086069480068BDE8F0812DE9F041C0
:1010A00004465548016B204605F0BEFF64490860C0
:1010B0004FF07C516248006806F02CFA09D24FF0DC
:1010C0003F415F48006806F02FFA02D200205C49D9
:1010D00008605B4801685B48006805F050FF5949AB
:1010E000086053495748006806F01EFA03D250487A
:1010F000544908600BE04F495248006806F00AFA6C
:1011000003D24C484F49086001E04E4800684D4901
:1011100008604D4801684A48006805F082FF0746AC
:101120003548C16A384605F082FF05463249886A6B
:101130004449096805F07BFF07462F49486A404942
:10114000096805F074FF8046394605F018FF064629
:10115000294605F014FF3D490860394800683A49BE
:1011600008603A480068BDE8F0812DE9F05F4FF073
:10117000000A2A49B1F91A0006F051F9834606F02F
:101180009AF980460022324B06F068F806460022A3
:10119000304B06F0D5F8044606F0A0F91649C861B0
:1011A000C869FFF714FF82465046BDE8F09F2DE95D
:1011B000F05F4FF0000A1949B1F91C0006F02FF951
:1011C000834606F078F980460022214B06F046F867
:1011D000064600221F4B06F0B3F8044606F07EF9DF
:1011E00005494863486BFFF759FF82465046BDE802
:1011F000F09F00000000F040640100200AD7233C6B
:10120000000020410000C040280000201C000020F9
:1012100020000020240000202C000020A00100203D
:101220000000A0400040E7443000002038000020CB
:1012300000802C4400802CC4340000203C0000209E
:101240004000002048000020440000204C00002006
:10125000004CED400078CE4010B5202000F07AFE22
:1012600000284FD0FE48006800284BD1202000F015
:1012700082FEFC4AFC49FD4804F03BFEFFF790FE6D
:101280000220FFF7A6FD404200B2F949488304203E
:10129000FFF79FFD00B2F6498883FFF766FF04461B
:1012A00006F0DCF8F249C860FFF781FF044606F05B
:1012B000D5F8EF4908611031081FFFF7D7FBEC4A5A
:1012C0001169D068FFF77BFCEA480088401C80B2B7
:1012D000E84908800A2801D100200880E648807982
:1012E00001280FD1E5480088401C80B2E3490880FE
:1012F000DF49C98A884205D10020E04908800120E1
:10130000DD49C87010BD2DE9F04F8DB00646894605
:1013100014461D46D649886806F0CDF80022D84B01
:10132000CDE9080105F097FF0022D64BCDE90A016F
:1013300006F006F807460022D34B05F08FFF8246E1
:1013400006F0CCF80C90CA480660C0F80490CF486C
:10135000007805287ED2DFE800F003076ACFFD00A1
:10136000CB4884610563B5E10C9806F0A4F8CDE99B
:10137000000107F087FB4FF08042C64BCDE9020128
:1013800005F06CFF074600224FF0804305F0D8FFC0
:1013900082464FF00052C04B05F0D2FF0022BF4BF7
:1013A000CDE9040105F0B3FECDE90801204606F0C1
:1013B00082F8CDE90601DDE9082305F04FFFCDE90C
:1013C0000A0106F08BF8B24988610C9806F073F8B0
:1013D000824607F057FB07464FF08042AD4B05F0C1
:1013E0003DFF00224FF08043CDE9000105F0A8FF4A
:1013F0004FF00052A84BCDE9020105F0A1FF0022F9
:10140000A64BCDE9040105F026FFCDE908012046F1
:1014100006F051F8CDE90601DDE9082305F01EFFCD
:10142000CDE90A0106F05AF89949086352E10C988F
:1014300006F041F8074607F025FB4FF08042954B38
:10144000CDE9000105F00AFF00224FF08043CDE90D
:10145000020100E03AE105F073FF4FF000528E4BBD
:10146000CDE9040105F06CFF00228C4BCDE90601AB
:1014700005F0F1FECDE90801204606F01CF8824691
:10148000DDE9082305F0EAFECDE90A0106F026F8B9
:101490007F4988610C9806F00EF8824607F0F2FA50
:1014A00007464FF080427B4B05F0D8FE00224FF0FC
:1014B0008043CDE9000105F043FF4FF00052764B29
:1014C000CDE9020105F03CFF0022744BCDE9040197
:1014D00005F01DFECDE90801204605F0ECFFCDE941
:1014E0000601DDE9082305F0B9FECDE90A0105F0A2
:1014F000F5FF67490863EDE00C9805F0DCFFCDE9E6
:10150000000107F0BFFA4FF08042624BCDE90201C3
:1015100005F0A4FE824600224FF0804305F010FF44
:1015200007464FF000525C4B05F00AFF00225B4B70
:10153000CDE9040105F08FFECDE90801204605F054
:10154000BAFFCDE90601DDE9082305F087FECDE904
:101550000A0100E035E005F0C1FF4D4988610C98B3
:1015600005F0A9FF074607F08DFA82464FF080424A
:10157000484B05F073FE00224FF08043CDE9000197
:1015800005F0DEFE4FF00052434BCDE9020105F0BD
:10159000D7FE0022414BCDE9040105F0B8FDCDE9AD
:1015A0000801204605F087FFCDE90601DDE90823A3
:1015B00005F054FECDE90A0105F090FF34490863B7
:1015C00088E00C9805F077FFCDE9000107F05AFAA2
:1015D0004FF080422F4BCDE9020105F03FFE002283
:1015E0004FF08043CDE9040105F0AAFE07464FF015
:1015F0000052294B05F0A4FE82460022274B05F03D
:1016000086FDCDE90801204605F055FFCDE906012C
:10161000DDE9082305F022FECDE90A0105F05EFFB1
:101620001B4988610C9805F046FF074607F02AFA27
:101630004FF08042174BCDE9000105F00FFE8246C6
:1016400000224FF0804305F07BFE4FF00052124B1A
:10165000CDE9020105F074FE0022104B20E00000ED
:1016600014812142600000205C000020580000200E
:10167000A00100206A000020500000206C00002023
:1016800000E69C4000001440000018406800002064
:10169000640100203333C33F2FDDC43F0000F03F1F
:1016A000CDE9040105F0D7FDCDE90801204605F09C
:1016B00002FFCDE90601DDE9082305F0CFFDCDE904
:1016C0000A0105F00BFFF849086303E0F64884615E
:1016D000056300BF00BF0DB0BDE8F08F10B5F34843
:1016E000007E01287DD1F24840790A281FD2DFE828
:1016F00000F01E051F3C6896BBEAFEFDEC48007832
:10170000012814D1EB4B1A46EB4801680020FFF783
:10171000FAFDFEF7EAFFE548007D012807D1002029
:10172000E3490870E14908750220E149487125E163
:10173000DF48807960B9DF4B1A46DF480168002036
:10174000FFF7E1FD0120DA4988712220D749C882DC
:10175000D748C078012807D10020D5498871C870C2
:10176000012048700320487108E1D14840780128E1
:1017700012D1CF48807978B900231A461946184605
:10178000FFF7C1FD0120CA4988716420C749C8829A
:101790001021CA4800F007FDC548C07801280FD1C4
:1017A0001021C64800F0FDFC0020C1498871C870B6
:1017B000487001200871C24908700420BC49487172
:1017C000DCE0BB480079012811D1B948807970B9B3
:1017D000B948006880F00044BA4B1A462146BA481E
:1017E00000E0CCE0FFF78FFD0120B1498870B248DE
:1017F000006805F033FE041E01DB204600E0604275
:101800004B280BD10020AA498871C87002200871AA
:101810000020AB4908700520A5494871AEE0A448F6
:101820000079022812D1A248807978B9A2480068CC
:1018300080F00044A54B1A462146A548FFF763FDFA
:1018400001209B4988711C209849C8829848C0781B
:10185000012808D1002096498871C87008710120BC
:1018600048700620487189E091484078012817D1D6
:101870008F488079A0B99048006896490860002395
:101880001A4619461846FFF73EFD0120884988711F
:101890004FF4FA708549C8821021884800F083FC13
:1018A0008348C07801280DD11021844800F079FCCC
:1018B00000207F498871C8704870814908700720EE
:1018C0007B4948715AE07A484078A8B982498148F2
:1018D000006805F0A6FB0446804B1A46764801686E
:1018E0002046FFF710FD0120714901E03FE014E0C0
:1018F00088711D206D49C8826D48C07801280BD1C0
:1019000000206B498871C8700120C87102206C49A1
:10191000087008206649487130E06548C0790128A0
:101920000CD16348807948B96D4B1A46624801680A
:101930000020FFF7E8FC01205D4988705E480068E0
:1019400005F08CFD041E01DB204600E0604268B912
:101950000020574988708871C870C87101200870CC
:1019600000205749087009205149487106E00023BA
:101970001A4619461846FFF7C6FC00BFB7E14B48A8
:10198000007E0228FAD14A4840790D2822D2DFE8A9
:1019900000F0210722436FC1E6FEFDFCFBFAF900CF
:1019A00043480078012815D1424B1A464248016845
:1019B0000020FFF7A8FCFEF798FE3C48007D0128B8
:1019C00008D100203A4908703849087538498871AB
:1019D000022048718AE13648807960B9354B1A4651
:1019E000354801680020FFF78EFC012030498871DE
:1019F00046202E49C8822E48C07801280BD10020ED
:101A00002B498871C870012048700020087001209F
:101A100048700320487169E125484078012812D1B7
:101A20002348807978B900231A4619461846FFF7EB
:101A30006AFC01201E49887164201C49C88210215B
:101A40001E4800F0B0FB1A48C07801280FD11021C1
:101A50001A4800F0A6FB002015498871C87048702C
:101A600001200871164908700420114948713DE1B0
:101A70000F48007901280FD10D48807960B90E48D0
:101A8000006880F00044174B1A4621461648FFF7BD
:101A90003AFC0120064988700748006805F0DEFC22
:101AA000041E23DB204622E064010020A001002068
:101AB000500000200000C8426000002000080140E3
:101AC000680000200000AFC3000096C2000096C36B
:101AD00000008CC2640000200000404000009643DB
:101AE00000007A4300007AC30000F0C160421E2863
:101AF0000FD17F4800687F49086000207E498871C7
:101B0000C8700220087100207C49087005207A49BD
:101B10004871EBE078480079022813D17648807943
:101B200080B97348006880F00044754B1A4621461E
:101B300070480068FFF7E7FB01206F4988711E209D
:101B40007049C8826C48C078012807D100206A49D2
:101B50008871C8700320087106204871C6E0664885
:101B60000079032819D164488079B0B960480068C9
:101B700080F00044624B1A4621466348FFF7C3FBDE
:101B8000012005E0ABE08BE086E064E043E012E09A
:101B90005949887128205B49C8825748C078012874
:101BA00008D1002054498871C8700871012048701C
:101BB000072048719AE050484078012817D14E48D4
:101BC0008079A0B94A4800684A49086000231A464B
:101BD00019461846FFF797FB0120474988714FF4D3
:101BE000FA704849C8821021484800F0DCFA42489F
:101BF000C07801280ED11021444800F0D2FA00200C
:101C00003D498871C870487004203C49087008201C
:101C1000394948716AE03848807960B900231A462A
:101C2000334801683A48FFF76EFB0120324988715A
:101C30000F203449C8823048C07801280AD10020DA
:101C40002D49887104202D49087000202A49C87048
:101C5000092048714AE02848807930B92D4B1A464E
:101C6000234801682A48FFF74EFB2148006805F029
:101C7000F5FB041E01DB204600E0604228280AD163
:101C800000201D498871C8701C49087001201A493C
:101C900008700A20487129E00B201749487125E097
:101CA0001548007801280FD11348807960B91A4B84
:101CB0001A460F4801680020FFF725FB01200E4956
:101CC00088716E200F49C8820B48C078012805D161
:101CD000002009498871C8700C20487106E0002373
:101CE0001A4619461846FFF70EFB00BF00BF10BD8D
:101CF00060000020640000205000002068000020E8
:101D0000000096C3A00100200000B8410008014077
:101D10000000204200003443000048430EB501217A
:101D2000092000F04DFC48208DF803002020ADF87C
:101D3000000003208DF8020069460B4800F084F98A
:101D40000521012000F096FA2020019001208DF855
:101D50000A0000208DF808000C208DF8090001A869
:101D600000F092F80EBD0000000C014006488047CC
:101D700006480047FEE7FEE7FEE7FEE7FEE7FEE770
:101D8000FEE7FEE7FEE7FEE75F030008ED00000860
:101D900031490143314A1160704770B50021002379
:101DA0000F22C47804B32D4C246804F4E064C4F515
:101DB000E064210AC1F10403CA40447804FA03F143
:101DC0008478144021430901254C0678A1550478F4
:101DD00004F01F050124AC4005786D11AD0005F13C
:101DE000E025C5F8004109E0047804F01F0501244E
:101DF000AC401C4D0678761145F8264070BD1A4A55
:101E00000A400243154B1B1F1A60704739B1134A31
:101E1000121D12680243114B1B1D1A6006E00F4A87
:101E2000121D126882430D4B1B1D1A607047042857
:101E300008D14FF0E021096941F004014FF0E022A0
:101E4000116107E04FF0E021096921F004014FF032
:101E5000E0221161704700000000FA050CED00E07F
:101E600000E400E080E100E080FFFF1F0020444923
:101E70000860091D0860091D0860091D08604148C7
:101E80003F4914310860704700213D498279002A9A
:101E90003AD00A46126803689A430B461A600A1D34
:101EA000126803689A430B1D1A60027911440A688C
:101EB00003681A430A60324A0832126803689A4378
:101EC0002F4B08331A601A1D126803689A432C4B73
:101ED0000C331A604279102A0ED11A1F1268036857
:101EE0001A43274B08331A601A1D126803681A43F5
:101EF000234B0C331A600DE02149427911440A68E2
:101F000003681A430A6005E0027911440A6803680D
:101F10009A430A6070470021016001710C214171F0
:101F20000021817170471649103109680143144A34
:101F300010321160704701460020114A14321268B5
:101F40000A400AB1012000E0002070470C4914311A
:101F500008607047014600200022094B1B6803EA15
:101F60000102074B14331B680B4013B10AB1012067
:101F700000E00020704702491431086070470000FB
:101F800000040140FFFF0F0010B50446CC48844216
:101F900008D10121042000F02DFB0021042000F0D5
:101FA00029FB46E0C748844208D10121082000F0FF
:101FB00021FB0021082000F01DFB3AE0C2488442CA
:101FC00008D10121102000F015FB0021102000F0A5
:101FD00011FB2EE0BD48844208D10121202000F0F1
:101FE00009FB0021202000F005FB22E0B8488442D4
:101FF00008D10121402000F0FDFA0021402000F02E
:10200000F9FA16E0B348844208D10121802000F09B
:10201000F1FA0021802000F0EDFA0AE0AE48844297
:1020200007D10121801500F0E5FA0021A01500F08C
:10203000E1FA10BD10B50121084600F0DBFA0021DD
:10204000012000F0D7FA10BD2DE9F041024600252D
:102050000026002000230024002791F803C00CF084
:102060000F0591F803C00CF0100CBCF1000F03D069
:1020700091F802C04CEA050591F800C0BCF1000FD0
:1020800031D0146800202BE04FF0010C0CFA00F363
:10209000B1F800C00CEA03069E4220D183004FF045
:1020A0000F0C0CFA03F7BC4305FA03FC4CEA0404DA
:1020B00091F803C0BCF1280F06D14FF0010C0CFAC7
:1020C00000FCC2F814C00AE091F803C0BCF1480F4C
:1020D00005D14FF0010C0CFA00FCC2F810C0401CF6
:1020E0000828D1D31460B1F800C0BCF1FF0F34DD73
:1020F000546800202EE000F1080C4FF0010808FAA7
:102100000CF3B1F800C00CEA03069E4221D1830013
:102110004FF00F0C0CFA03F7BC4305FA03FC4CEA32
:10212000040491F803C0BCF1280F05D100F1080C9C
:1021300008FA0CF8C2F8148091F803C0BCF1480FFB
:1021400007D100F1080C4FF0010808FA0CF8C2F8AA
:102150001080401C0828CED35460BDE8F0814FF6B3
:10216000FF710180022181700421C1707047024615
:10217000002093680B400BB1012000E00020704765
:102180000146886880B2704702460020D3680B4041
:102190000BB1012000E0002070470146C86880B202
:1021A000704701617047416170470AB1016100E009
:1021B00041617047C16070474FF480320A438261C9
:1021C0008161826182698269704702460020434BC7
:1021D00018684FF68073184040EA021008433F4BDE
:1021E000186070473E49C8617047F0B50A46002341
:1021F00000240021002500F00046B6F1004F02D176
:10220000364EF16901E0354E7168C0F3034583B283
:1022100000F44016B6F5401F08D121F070612F4E32
:10222000766826F070662D4F7E6012E000F480160E
:10223000B6F5801F06D1032606FA05F4A14341F046
:10224000706106E0460D360103FA06F6B14341F02F
:10225000706122B1460D360103FA06F6314300F0F3
:102260000046B6F1004F02D11C4EF16101E01B4E59
:102270007160F0BD30B500228B071C0F0F2303FAED
:1022800004F2164B08338C1053F824309343134C4C
:1022900008348D1044F8253023468C1053F8243030
:1022A0008C07240F00FA04F423430C4C08348D10DF
:1022B00044F8253030BD0A49DC3108607047000021
:1022C00000080140000C01400010014000140140D2
:1022D00000180140001C01400020014000000140A6
:1022E00000002042DF48006840F00100DD4908603E
:1022F00008464068DC490840DA49486008460068FA
:10230000DA490840D74908600846006820F4802070
:1023100008600846406820F4FE0048604FF41F0043
:1023200088607047CF49096821F48031CD4A116037
:102330001146096821F480211160B0F5803F03D077
:10234000B0F5802F0ED106E0C649096841F480310E
:10235000C44A116007E0C349096841F4A021C14A99
:10236000116000E000BF00BF704710B501460022B9
:10237000002300204A11012A02D1BA4C236806E04A
:10238000022A02D1B74C236A01E0B64C636A01F01D
:102390001F02012494401C400CB1012000E00020E9
:1023A00010BD38B5002000900024002500BF31206A
:1023B000FFF7DBFF05460098401C00900098B0F541
:1023C000A06F01D0002DF2D03120FFF7CEFF08B171
:1023D000012400E00024204638BD01460020A14A27
:1023E000106820F0F80040EAC10010607047A04972
:1023F00008607047024600209A4B586820F47C1011
:1024000042EA01031843974B5860704798490866A1
:10241000704701460020934A506820F003000843AB
:10242000506070478F48406800F00C0070470146CC
:1024300000208C4A506820F0F0000843506070473C
:1024400001460020874A506820F4E060084350604D
:10245000704701460020834A506820F4605040EAEB
:10246000C1005060704729B17E4A527A02437D4BC9
:102470005A7204E07B4A527A82437A4B5A7270470E
:102480007B49D8310860704701460020754A506882
:1024900020F440400843506070470021714A2032C8
:1024A0001170704A82F82010012802D004280AD145
:1024B00004E001216B4A2032117005E00521694AD0
:1024C0002032117000E000BF00BF7047694908600A
:1024D00070476449096A0143624A1162704765495D
:1024E00044390860704730B50021002200240023E1
:1024F0005C4D6D6805F00C0121B1042905D0082957
:1025000023D105E05C4D056022E05B4D05601FE0D6
:10251000544D6D6805F47012524D6D6805F48034A9
:10252000022505EB92421CB9544D554305600BE062
:102530004C4D6D6805F400351DB1504D5543056097
:1025400002E04D4D5543056002E04B4D056000BF74
:1025500000BF444D6D6805F0F0010909484D6B5C02
:102560000568DD4045603F4D6D6805F4E061090A8E
:10257000434D6B5C4568DD4085603A4D6D6805F400
:102580006051C90A3E4D6B5C4568DD40C560354D04
:102590006D6805F44041890B3A4D6B5CC568B5FB2D
:1025A000F3F5056130BD29B12E4A526902432D4B26
:1025B0005A6104E02B4A526982432A4B5A617047A0
:1025C00029B1284A92690243264B9A6104E0254AC0
:1025D00092698243234B9A61704729B1214AD2699B
:1025E0000243204BDA6104E01E4AD26982431D4B4C
:1025F000DA61704729B11B4AD2680243194BDA608D
:1026000004E0184AD2688243164BDA60704729B159
:10261000144A12690243134B1A6104E0114A126909
:102620008243104B1A617047124940390860704765
:102630000F49C86470470B49C87170470948406A20
:1026400040F0807007494862704701460020054A03
:1026500092680A400AB1012000E000207047014959
:1026600088727047001002400000FFF8FFFFF6FE7E
:10267000000042428004424200127A0000093D00FC
:102680006E0000207E00002010B50446FE48844203
:1026900008D10121C014FFF7ADFF0021E014FFF7BE
:1026A000A9FFC4E0B4F1804F08D101210846FFF72B
:1026B000AEFF00210120FFF7AAFFB8E0F3488442F3
:1026C00008D101210220FFF7A2FF00210220FFF71D
:1026D0009EFFACE0EE48844208D101210420FFF7C0
:1026E00096FF00210420FFF792FFA0E0E948844212
:1026F00008D101210820FFF78AFF00210820FFF7F9
:1027000086FF94E0E448844208D101211020FFF7BD
:102710007EFF00211020FFF77AFF88E0DF48844227
:1027200008D101212020FFF772FF00212020FFF7B0
:102730006EFF7CE0DA48844208D101214014FFF7A3
:1027400059FF00216014FFF755FF70E0D54884421F
:1027500009D10121C804FFF74DFF00214FF40020EB
:10276000FFF748FF63E0D048844209D10121080502
:10277000FFF740FF00214FF48010FFF73BFF56E0CA
:10278000CA48844209D101214805FFF733FF0021DF
:102790004FF40010FFF72EFF49E0C548844208D1EE
:1027A00001214020FFF733FF00214020FFF72FFFDA
:1027B0003DE0C048844208D101218020FFF727FF77
:1027C00000218020FFF723FF31E0BB48844208D17D
:1027D00001218015FFF71BFF0021A015FFF717FF50
:1027E00025E0B648844209D101210804FFF702FF21
:1027F00000214FF48030FFF7FDFE18E0B04884421E
:1028000009D101214804FFF7F5FE00214FF4003003
:10281000FFF7F0FE0BE0AB48844208D101218804A9
:10282000FFF7E8FE00214FF48020FFF7E3FE10BD24
:1028300000220288944B98420ED0994B98420BD0BC
:10284000B0F1804F08D0914B984205D0904B984200
:1028500002D0904B984204D14FF68F731A404B88A8
:102860001A438D4B984207D08C4B984204D04FF6B8
:10287000FF431A40CB881A4302808B8883850B88DC
:102880000385814B98420BD0854B984208D08B4BE7
:10289000984205D08A4B984202D08A4B984201D187
:1028A0000B7A038601238382704770B500240022CF
:1028B0000023058C4FF6FE7635400584028C838814
:1028C000048B4FF68F752C40B51E2C400D882C4381
:1028D000751E2A400D892A434D882A436A4DA84215
:1028E0000BD06F4DA84208D0744DA84205D0744D4E
:1028F000A84202D0734DA84213D14FF6F7752A4073
:102900004D892A434FF6FB752A408D882A434FF69E
:10291000FF652B404FF6FF552B408D892B43CD890A
:102920002B4383800483CD888586028470BD70B577
:10293000002400220023058C4FF6EF7635400584F5
:10294000028C8388048B48F6FF752C404FF6FF45B8
:102950002C400D884FF6FF7606EA05252C434FF6EE
:10296000DF752A400D8906EA05152A434D8806EAD7
:1029700005152A43444DA84202D0494DA8421DD115
:102980004FF67F752A404D894FF6FF7606EA05150A
:102990002A434FF6BF752A408D8806EA05152A435B
:1029A0004FF6FF352B404FF2FF752B408D8906EA1D
:1029B00085052B43CD8906EA85052B438380048357
:1029C000CD880587028470BD70B5002400220023E5
:1029D000058C4FF6FF6635400584028C8388848B16
:1029E0004FF68F752C404FF6FC752C400D882C430C
:1029F0004FF6FF552A400D894FF6FF7606EA05256A
:102A00002A434D8806EA05252A431F4DA84202D0D5
:102A1000234DA8421DD14FF2FF752A404D894FF634
:102A2000FF7606EA05252A434FF6FF352A408D88B2
:102A300006EA05252A434EF6FF752B404DF6FF7535
:102A40002B408D8906EA05152B43CD8906EA05152D
:102A50002B4383808483CD888587028470BD70B5C5
:102A6000002200230024058C4EF6FF7635400584B5
:102A7000038C8488828B48F6FF752A404FF6FF4509
:102A80002A400D8820E00000002C01400004004096
:102A900000080040000C00400010004000140040FE
:102AA00000340140004C01400050014000540140FE
:102AB00000180040001C0040002000400040014081
:102AC00000440140004801404FF6FF7606EA052524
:102AD0002A434DF6FF752B400D8906EA05352B4339
:102AE0004D8806EA05352B43FA4DA84202D0FA4D2F
:102AF000A84208D14BF6FF752C408D894FF6FF7622
:102B000006EA85152C4384808283CD88A0F8405046
:102B1000038470BD828B4FF2FF331A408283828B15
:102B20004FF6FF7303EA01231A4382837047F0B51F
:102B30000C461546002200210026078C4EF6FF7C2D
:102B400007EA0C070784828B018C4FF6FF7707EAB0
:102B5000043640F6FF473A404FF6FF7707EA05276D
:102B60003A434FF6FF7707EA03373A43D94FB84263
:102B70000ED0D94FB8420BD0B0F1804F08D0D74F0C
:102B8000B84205D0D64FB84202D0D64FB84206D18F
:102B90004DF6FF77394046F48057394305E047F654
:102BA000FF57394044F48057394382830184F0BD94
:102BB000828B4FF6F3731A408283828B0A4382839F
:102BC0007047F0B50C461546002200210026078C00
:102BD0004FF6FF6C07EA0C070784828B018C4FF6D7
:102BE000FF7707EA04264FF60C773A404FF6FF7757
:102BF00007EA03172F433A43B64FB8420ED0B64FF9
:102C0000B8420BD0B0F1804F08D0B44FB84205D0D5
:102C1000B34FB84202D0B34FB84206D14FF6FF5778
:102C2000394046F48077394305E04FF2FF57394089
:102C300044F48077394382830184F0BD028B4FF2E4
:102C4000FF331A400283028B4FF6FF7303EA01231E
:102C50001A4302837047F0B50C4615460022002146
:102C60000026078C4FF6EF7C07EA0C070784028BDF
:102C7000018C4FF6FF7707EA041640F6FF473A400B
:102C80004FF6FF7707EA03373A434FF6FF7707EA35
:102C900005273A438F4FB8420ED08F4FB8420BD022
:102CA000B0F1804F08D08D4FB84205D08C4FB8425C
:102CB00002D08C4FB84206D14FF6DF77394046F04C
:102CC0001007394305E04FF65F77394044F01007AD
:102CD000394302830184F0BD028B4FF6F3731A402F
:102CE0000283028B0A4302837047F0B50C461546F7
:102CF00000220021068C4FF6FE773E400684028BB0
:102D0000018C4FF60C7632407E1C06EA03162E43E9
:102D10003243704EB0420ED06F4EB0420BD0B0F185
:102D2000804F08D06D4EB04205D06D4EB04202D0FB
:102D30006C4EB04206D14FF6FD76314044F00106AC
:102D4000314305E04FF6F576314044F0010631435A
:102D500002830184F0BD70B505460C465D4885428E
:102D60000ED05D4885420BD0B5F1804F08D05B484E
:102D7000854205D05A48854202D05A48854200D142
:102D800000E000BF208850B92389A28861882846C6
:102D9000FFF7ABFFE1882846FFF79EFF25E020887C
:102DA00004280AD12389A28861882846FFF753FFA7
:102DB000E1882846FFF742FF17E0208808280AD15B
:102DC0002389A28861882846FFF7FBFEE188284610
:102DD000FFF7EEFE09E02389A28861882846FFF705
:102DE000A6FEE1882846FFF795FE70BD2DE9F0416B
:102DF00005460C4600260127608808B9022600E037
:102E00000026A088012801D1022700E001272088A0
:102E1000A0B92389A28861882846FFF766FFE18868
:102E20002846FFF759FF23893A4631462846FFF7DF
:102E300012FFE1882846FFF701FF13E02389A288EB
:102E400061882846FFF707FFE1882846FFF7F6FE6E
:102E500023893A4631462846FFF747FFE18828464E
:102E6000FFF73AFFBDE8F0810A884B881A438B8848
:102E70001A43CB881A430B891A434B891A438B890F
:102E80001A43A0F8442070474FF6FF71818000215B
:102E90000180C18041800172704700210180418022
:102EA0008180C180018141818181C1817047002180
:102EB00001804180012181800021C1800181704712
:102EC0000021018041808180C18001814181818117
:102ED00070470000002C0140003401400004004015
:102EE00000080040000C004021B1028842F00102BD
:102EF000028004E002884FF6FE731A400280704799
:102F000031B1B0F8442042F40042A0F8442005E07A
:102F1000B0F84420C2F30E02A0F8442070471AB162
:102F200083890B43838102E083898B4383817047CC
:102F30008182704741EA0203A0F8483070471AB115
:102F400083890B43838102E083898B4383817047AC
:102F500001894FF6F8721140018170470A4600213D
:102F600001894FF68F73194011430181704730B5C5
:102F700004460D4629462046FFF7F0FF208940F021
:102F80000700208130BD2DE9F04104460D4616466C
:102F90001F46602D06D13B46012231462046FFF7F1
:102FA0005AFE05E03B46012231462046FFF79DFED2
:102FB00029462046FFF7D2FF208940F007002081F4
:102FC000BDE8F08130B50C4600210189C9B24FF649
:102FD000FF7505EA0325154325432943018130BDCB
:102FE0002DE9F04105460E46174698460024434613
:102FF0003A4631462846FFF7E5FF2C894FF6F87030
:10300000044044F007044FF68F70044044F070040D
:103010002C81BDE8F081F0B504460D4616461F46EA
:103020003B46324629462046FFF7CCFF208940F434
:1030300080402081F0BD0185828270470A460021D0
:1030400001884FF68F731940114301807047F0B526
:103050000C4615461E460021002200230189028BE2
:10306000038C4FF6F877394021434FF6FC473A403E
:1030700040F201173A434FF6DD773B404FF6FF77BA
:1030800007EA06172F433B43018102830384F0BD07
:103090000A460021018B4FF68F73194011430183BB
:1030A00070470A460021018B48F6FF7319404FF61E
:1030B000FF7303EA02231943018370470A46002184
:1030C000818B4FF68F7319401143818370470A46F5
:1030D0000021818B48F6FF7319404FF6FF7303EA16
:1030E000022319438183704721B1028842F0800294
:1030F000028004E002884FF67F731A400280704716
:1031000021B1828842F00402828004E082884FF676
:10311000FB731A408280704721B1828842F0080216
:10312000828004E082884FF6F7731A4082807047ED
:1031300021B1828842F00102828004E082884FF649
:10314000FE731A40828070470A460021018B4FF6B9
:10315000F77319401143018370470A460021018B20
:103160004FF2FF7319404FF6FF7303EA022319432E
:10317000018370470A460021818B4FF6F77319408F
:103180001143818370470A460021818B4FF2FF7300
:1031900019404FF6FF7303EA0223194381837047F6
:1031A0000A460021018B4FF6FB731940114301833E
:1031B00070470A460021018B4FF6FF3319404FF646
:1031C000FF7303EA02231943018370470A46002173
:1031D000818B4FF6FB7319401143818370470A4678
:1031E0000021818B4FF6FF3319404FF6FF7303EA3E
:1031F00002231943818370470A460021018B4FF651
:103200007F7319401143018370470A460021018BE7
:10321000C1F30E014FF6FF7303EA02231943018342
:1032200070470A460021818B4FF67F731940114386
:10323000818370470A460021818BC1F30E014FF64E
:10324000FF7303EA02231943818370470A46002172
:10325000018C4FF6FD7319401143018470470A46F3
:103260000021018C4FF6F773194011430184704718
:103270000A460021018C4FF6DF7319404FF6FF73A9
:1032800003EA02131943018470470A460021018CA6
:103290004FF67F7319404FF6FF7303EA0213194389
:1032A000018470470A460021018C4FF6FF531940F4
:1032B0004FF6FF7303EA02231943018470470A465D
:1032C0000021018C4FF2FF7319404FF6FF7303EAA0
:1032D00002231943018470470A460021018C4DF6F0
:1032E000FF7319404FF6FF7303EA02331943018459
:1032F000704730B5002301248C40A3B2048C9C435A
:103300000484048C02FA01F5ADB22C43048430BD70
:1033100030B5002304248C40A3B2048C9C43048465
:10332000048C02FA01F5ADB22C43048430BD70B5B3
:103330000346002000241846183001258D40ACB209
:103340001D8CA5431D8409B1082909D100EB61003A
:10335000056825F0700505600568154305600EE0F9
:103360000D1FC5F34E052844056825F4E0450560AA
:1033700005684FF6FF7606EA02263543056070BD04
:1033800021B1028842F00202028004E002884FF676
:10339000FD731A400280704721B1028842F0040296
:1033A000028004E002884FF6FB731A4002807047E7
:1033B00021B1828842F08002828004E082884FF648
:1033C0007F731A408280704702884FF6F7731A4065
:1033D000028002880A430280704782884FF68F730A
:1033E0001A40828082880A438280704702894FF6A1
:1033F000F8731A40028102890A43028170470289E8
:103400004FF67F731A40028102890A430281704796
:103410008184704781857047818670470187704736
:1034200081877047A0F84010704702884FF6FF432D
:103430001A40028002880A43028070470146888E43
:1034400070470146088F70470146888F70470146D4
:10345000B1F8400070470146888C70470146088DDE
:10346000704702460020138A0B400BB1012000E098
:1034700000207047CA430282704730B502460020E0
:1034800000230024158A05EA0103958905EA010451
:1034900013B10CB1012000E0002030BDCA4302820C
:1034A0007047000010B50446FB48844209D1012151
:1034B0008803FFF79FF800214FF48040FFF79AF848
:1034C00032E0F648844209D101214804FFF79FF811
:1034D00000214FF40030FFF79AF825E0F0488442CD
:1034E00009D101218804FFF792F800214FF48020D0
:1034F000FFF78DF818E0EB48844209D10121C80498
:10350000FFF785F800214FF40020FFF780F80BE06B
:10351000E548844208D101210805FFF778F8002129
:103520004FF48010FFF773F810BD2DE9F04786B017
:1035300005460E460024A24600BFA1460027B089DA
:1035400000B100BF2F462C8A4CF6FF700440F08873
:1035500004432C82AC894EF6F3100440B0883189C4
:103560000843718908430443AC81AC8A4FF6FF409D
:103570000440B0890443AC8201A8FEF7B4FFC648FA
:10358000874202D1DDF810A001E0DDF80CA0A88987
:1035900000F4004040B10AEBCA0000EB0A103168A9
:1035A0004900B0FBF1F807E00AEBCA0000EB0A1093
:1035B00031688900B0FBF1F86420B8FBF0F0040139
:1035C0002009642101FB1089A88900F4004040B162
:1035D000322000EBC900B0FBF1F000F0070004431B
:1035E00008E0322000EB09106421B0FBF1F000F09C
:1035F0000F0004432C8106B0BDE8F0874FF416514C
:10360000016000218180C18001810C214181002164
:103610008181704710B502460020108A4FF2FF03E7
:1036200018400B884C8823438C882343CC88234341
:103630001843108210BD0021018041808180C1802B
:10364000704721B1828942F40052828104E082896C
:103650004DF6FF731A4082817047F0B5034600248F
:1036600000260025002040F66A17B94200D100BFAD
:103670001846C1F3421401F01F06012707FA06F5A8
:10368000012C01D10C3004E0022C01D1103000E0FB
:1036900014301AB107682F43076002E00768AF4390
:1036A0000760F0BD1AB1838A0B43838202E0838AEC
:1036B0008B4383827047028A4FF6F0731A4002826E
:1036C000028A0A430282704782894FF2FF731A40CE
:1036D000828182890A438281704721B1828942F0C6
:1036E0000202828104E082894FF6FD731A408281D2
:1036F0007047028A4FF6DF731A400282028A0A4339
:103700000282704721B1028A42F48042028204E0C0
:10371000028A4BF6FF731A4002827047C1F3080217
:103720008280704701468888C0F30800704781890D
:1037300041F0010181817047028BD2B20283028B7A
:1037400042EA012202837047028B02F47F42028325
:10375000028B0A430283704721B1828A42F0200221
:10376000828204E0828A4FF6DF731A4082827047B9
:1037700021B1828A42F01002828204E0828A4FF6EE
:10378000EF731A408282704721B1828A42F00802A8
:10379000828204E0828A4FF6F7731A408282704771
:1037A00021B1828942F40042828103E08289C2F31E
:1037B0000E028281704721B1828A42F400628282C5
:1037C00004E0828A4FF2FF731A4082827047828A35
:1037D0004FF6FB731A408282828A0A4382827047C4
:1037E00021B1828A42F00202828204E0828A4FF68C
:1037F000FD731A408282704702460020B1F5007FB7
:1038000000D100BF13880B400BB1012000E0002065
:10381000704701F40072B2F5007F00D100BFCA43C7
:103820000280704770B50246002400230025002066
:1038300040F66A16B14200D100BFC1F3421501F053
:103840001F03012606FA03F3012D02D196893340A6
:1038500006E0022D02D1168A334001E0968A3340F9
:103860000C12012606FA04F41688344013B10CB188
:10387000012000E0002070BD10B50022002340F6BA
:103880006A14A14200D100BF0A1201249440A3B2DD
:10389000DC43048010BD00000038014000440040BB
:1038A00000480040004C00400050004070B5054604
:1038B0000C4600F0D7F9D02000F088FA00F013FA97
:1038C00018B100F0EFF9012070BD284600F07EFA33
:1038D00000F009FA204600F079FA00F004FA18B175
:1038E00000F0E0F90120EFE700F0DCF90020EBE761
:1038F00070B504460025BC2C01DB012510E0622CCC
:1039000001DB02250CE02A2C01DB032508E0142C46
:1039100001DB042504E00A2C01DB052500E0062577
:1039200029461A20FFF7C2FF70BD70B50446B4F5F2
:103930007A7F01DD4FF47A74042C00DA04244FF40A
:103940007A7090FBF4F0401EC5B229461920FFF7AB
:10395000ADFF0546264604EBD671C1F34F00FFF7D5
:10396000C7FF70BD70B5044600F07CF9D02000F0B0
:103970002DFA00F0B8F9204600F028FA00F0B3F96B
:1039800000F070F9D12000F021FA00F0ACF900202D
:1039900000F047FA054600F085F9284670BD10B5DD
:1039A0000446E006010E1C20FFF780FF10BD10B595
:1039B0000446E006010E1B20FFF778FF10BD10B58E
:1039C00001219348FEF711FC00209249086000F0A5
:1039D00030F980216B20FFF769FF6420FCF77DFD43
:1039E00000216B20FFF762FF0320FFF7E0FF0020BC
:1039F000FFF7D5FF3220FFF798FF00213820FFF7AF
:103A000055FF00216A20FFF751FF00212320FFF717
:103A10004DFF80213720FFF749FF7520FFF7A2FFF8
:103A20000446682C0BD101216B20FFF73FFF0021DA
:103A30006C20FFF73BFF3220FFF777FF01E001200A
:103A400010BD0020FCE72DE9F04106460F46144664
:103A50001D4600F007F9002141EA4601C8B200F016
:103A6000B5F900F040F920B100F01CF90120BDE8E3
:103A7000F081384600F0AAF900F035F900F0F2F8CC
:103A8000012101EB4601C8B200F0A0F900F02BF9CA
:103A90000DE0012C04D1002000F0C3F9287003E0F0
:103AA000012000F0BEF92870601EC4B26D1C002C0D
:103AB000EFD100F0F7F80020D9E72DE9F84F6B4679
:103AC000022241216820FFF7BEFF9DF801009DF80A
:103AD000001040EA01200FFA80FA504603F0ADFCD6
:103AE000804600224C4B03F02BFC06464B4A4C4BC5
:103AF00003F00DFB044603F0F1FC834649495846A8
:103B000003F095FA044603F0A9FC00B2BDE8F88F73
:103B10002DE9FC4104460D4616466B46062243211C
:103B20006820FFF790FF0746BFB99DF801009DF898
:103B3000001040EA012000B220809DF803009DF8AB
:103B4000021040EA012000B228809DF805009DF88F
:103B5000041040EA012000B230803846BDE8FC8104
:103B60002DE9FC4104460D4616466B4606223B21D4
:103B70006820FFF768FF0746BFB99DF801009DF870
:103B8000001040EA012000B220809DF803009DF85B
:103B9000021040EA012000B228809DF805009DF83F
:103BA000041040EA012000B230803846BDE8FC81B4
:103BB0002DE9F04105460E461746984600F052F8AA
:103BC000002141EA4501C8B200F000F900F08BF88D
:103BD00020B100F067F80120BDE8F081304600F028
:103BE000F5F800F080F800240CE018F8040000F06C
:103BF000EDF800F078F818B100F054F80120EBE788
:103C0000601CC4B2BC42F0DB00F04CF80020E3E7DB
:103C100000023000BC01214200407540A4703D0A02
:103C2000D74342400000C84210B50220FCF731FCE7
:103C300010BD08B501210820FEF7C2FC4FF440700A
:103C4000ADF8000010208DF8030003208DF802006D
:103C500069468D48FEF7F8F94FF440718A48FEF73F
:103C6000A0FA08BD10B58848001D006820F0F000DB
:103C70008549091D08600846006840F0300008606A
:103C80000120824908608249C1F8A001FFF7CCFFFA
:103C900000207E490860FFF7C7FF00207C49C1F87B
:103CA000A00110BD10B57848001D006820F0F0009C
:103CB0007549091D08600846006840F0300008603A
:103CC00000207249091F08607149C1F8A401FFF77B
:103CD000ABFF01206D49091F08606D49C1F8A401BF
:103CE000FFF7A2FF10BD10B500246748001D006853
:103CF00020F0F0006449091D08600846006840F0A3
:103D000080000860012061490860FFF78DFF0120F5
:103D10005F49C1F8A001FFF787FF07E0601CC4B24C
:103D2000FA2C03DDFFF7BEFF012010BD5748803895
:103D300000680028F2D15549091F086000BFF4E768
:103D400010B500205149091F08604F48001D006848
:103D500020F0F0004C49091D08600846006840F05A
:103D60003000086000204A49C1F8A401FFF75CFF59
:103D700001204649091F0860FFF756FF002044490B
:103D8000C1F8A00110BD10B500204049091F08600E
:103D90003D48001D006820F0F0003B49091D086007
:103DA0000846006840F03000086001203849C1F83A
:103DB000A401FFF739FF01203449091F0860FFF70C
:103DC00033FF00203249C1F8A00110BD70B5044690
:103DD0002D48001D006820F0F0002B49091D0860E7
:103DE0000846006840F03000086000202749091F9D
:103DF0000860002512E0E009244908606006040E0E
:103E000001202349C1F8A001FFF70EFF00201F4940
:103E1000091F0860FFF708FF681CC5B2082DEADB20
:103E200070BD70B5054600241748001D006820F0DD
:103E3000F0001549091D08600846006840F0800040
:103E40000860002615E000201049091F0860FFF7F0
:103E5000EBFE01200E49C1F8A0016006040E0B48DC
:103E60008038006808B1601CC4B2FFF7DDFE701C2A
:103E7000C6B2082EE7DB15B9FFF785FF01E0FFF7B3
:103E80005FFF204670BD0000000C0140A48121426C
:103E90000080214238B50446F74890F82400C0B1AC
:103EA00014B10220009001E000200090F24A126854
:103EB000D17BF14A526810786B460122FFF778FEF9
:103EC00010B14FF0FF3038BD9DF80010EA48417442
:103ED00023E0E948807A10B94FF0FF30F3E724B1CE
:103EE000E548407C08B10020EDE714B101200090C6
:103EF00001E000200090E04A1268D17BDE4A52685F
:103F000010786B460122FFF753FE10B14FF0FF30DF
:103F1000D9E79DF80010D84841740020D3E738B5A0
:103F200000241FE0D4480068C07AA04204D0D248E0
:103F30000068407DA04200D112E0CF49496808786E
:103F40006B4601222146FFF77EFD10B14FF0FF3096
:103F500038BD9DF800202146C8A003F08DFC00BFAD
:103F6000601CC4B2C44840680079A042DADC00207A
:103F7000EEE770B504460D46BF480068C07AA0421F
:103F800004D0BD480068407DA04202D14FF0FF3010
:103F900070BDB94840680079A04202DC4FF0FF30A4
:103FA000F6E7B549496808782B4601222146FFF714
:103FB0004AFDEDE738B50446AF4890F82300A0422B
:103FC00001D1002038BD14B13020009001E0002064
:103FD0000090A948807C20B19DF8000040F00200CC
:103FE0000090A54890F8220020B19DF8000040F014
:103FF00080000090A04A1268117D9F4A5268107894
:104000006B460122FFF7D4FD10B14FF0FF30D9E726
:10401000994880F823400020D4E738B5044604F0DE
:10402000700010B10120009005E014B10020009054
:1040300001E040200090904A1268917C8E4A5268BC
:1040400010786B460122FFF7B3FD20B100218A48AA
:104050008172481E38BD9DF8000020F0400186485E
:1040600001730020009004F0400020B99DF800008A
:1040700040F00400009004F0200020B99DF80000FA
:1040800040F00200009004F0100020B99DF80000FC
:1040900040F00100009004F0080020B99DF80000F5
:1040A00040F038000090744A1268D17C724A52681D
:1040B00010786B460122FFF77BFD20B100216E488E
:1040C0008172481EC6E724B1082C02D00020FFF7F9
:1040D00071FF69488472002101753220FCF7FDF9F7
:1040E0000020B7E738B504466348807CA04201D180
:1040F000002038BD002C46D05F4A126811795E4A14
:10410000526810786B460122FFF79DFC10B14FF00A
:10411000FF30EEE79DF8000020F020000090564AA6
:1041200012681179544A526810786B460122FFF7E1
:104130003FFD10B14FF0FF30DBE70320FCF7CDF976
:10414000022000904C4890F8220020B19DF8000019
:1041500040F080000090484890F8230020B19DF87E
:10416000000040F030000090434A1268117D424A3E
:10417000526810786B460122FFF71AFD002851D0D3
:104180004FF0FF30B5E73C4A126811793A4A52685D
:1041900010786B460122FFF756FC10B14FF0FF304C
:1041A000A7E73548807A00F0010028B19DF80000AB
:1041B00040F02000009004E09DF8000020F0200076
:1041C00000902D4A126811792B4A526810786B467C
:1041D0000122FFF7EDFC10B14FF0FF3089E703201B
:1041E000FCF77BF9244890F8220010B18020009061
:1041F00001E000200090204890F8230020B19DF8B5
:10420000000040F0300000901B4A1268117D1A4AED
:10421000526810786B460122FFF7CAFC10B14FF0CC
:10422000FF3066E714488474002062E708B512483E
:10423000807A10B94FF0FF3008BD002000900E4A80
:104240001268D17B0C4A526810786B460122FFF746
:10425000AFFC10B14FF0FF30EEE7074A126851791A
:10426000054A526810786B460122FFF7A1FC68B13D
:104270004FF0FF30E0E70000840000202523357870
:104280003A20252335780D0A00000000F84A12680C
:104290001179F74A526810786B460122FFF788FCC3
:1042A00010B14FF0FF30C7E7F14890F82400002824
:1042B00053D00C200090EE4A12681179EC4A5268F3
:1042C00010786B460122FFF773FC10B14FF0FF30FE
:1042D000B2E73220FCF701F9C0200090E448807A70
:1042E00000F0010020B19DF8000040F02000009097
:1042F000DF4A12681179DE4A526810786B46012253
:10430000FFF756FC10B14FF0FF3095E7D848407CDE
:1043100010B10220009001E000200090D44A126801
:10432000D17BD34A526810786B460122FFF740FCDC
:1043300010B14FF0FF307FE700200090CC4A1268A8
:104340005179CB4A526810786B460122FFF730FC56
:10435000002855D04FF0FF306EE704200090C44A8B
:1043600012681179C24A526810786B460122FFF731
:104370001FFC10B14FF0FF305EE7BD48807C20B9D4
:10438000BB48807A00F0010010B94020009001E0A5
:1043900060200090B64A12681179B54A52681078C8
:1043A0006B460122FFF704FC10B14FF0FF3043E7EA
:1043B0003220FCF792F8AE48407C10B1012000900A
:1043C00001E000200090AA4A1268D17BA84A5268F6
:1043D00010786B460122FFF7EBFB10B14FF0FF3076
:1043E0002AE7A34A12685179A14A52681078A04B73
:1043F00010330122FFF7DCFB10B14FF0FF301BE759
:10440000002019E770B50446002624F001049848FE
:1044100090F8240008B1002070BD9548807A10B94A
:104420004FF0FF30F8E79248057C807A20409049B1
:1044300008740846007CA04202D04FF0FF3600E02E
:10444000002614B98A48007D18B10120FFF722FD2B
:1044500002E00020FFF71EFD3CB1FFF7E7FE20B1B0
:10446000834805744FF0FF30D6E73046D4E738B5BF
:1044700004467F48807A10B94FF0FF3038BDBC2C1D
:1044800002DB0120009015E0622C02DB022000908C
:1044900010E02A2C02DB032000900BE0142C02DB3E
:1044A0000420009006E00A2C02DB0520009001E0C9
:1044B000062000906E48C07A9DF80010884201D115
:1044C0000020DBE76A4A12689178694A52681078DE
:1044D0006B460122FFF76CFB10B14FF0FF30CDE7C8
:1044E0009DF800106248C1720020C7E738B5044645
:1044F000282C02DD4FF0FF3038BDDCB90020FFF77B
:1045000059FD00208DF8000007208DF80100584A61
:104510001268917C564A526810786B460222FFF767
:1045200047FB10B14FF0FF30E6E70021504801751E
:104530000020E1E70120FFF73DFD20208DF800007D
:10454000012C06D100208DF801000520FFF78FFF18
:1045500017E0052C06DC01208DF801000520FFF78F
:1045600086FF0EE0142C06DC02208DF801000A20E4
:10457000FFF77DFF05E003208DF801001420FFF711
:1045800076FF9DF80100072101EB8010C0B28DF885
:104590000100374A1268917C354A526810786B46A0
:1045A0000222FFF705FB10B14FF0FF30A4E708210E
:1045B0002F48817200210173012101750020FFF74E
:1045C00021FF002098E738B504462948807A10B9C1
:1045D0004FF0FF3038BD264890F8240010B14FF05E
:1045E000FF30F7E72248007D50B134B1282C04DCBD
:1045F000E0B2FFF77BFF0020ECE70020FFF776FF3B
:10460000042C01DA042404E0B4F57A7F01DD4FF4D0
:104610007A744FF47A7090FBF4F0401EC0B20090B0
:10462000134A12685178124A526810786B46012278
:10463000FFF7BEFA10B14FF0FF30CBE79DF8000056
:10464000401C4FF47A7191FBF0F081B20848C181AF
:104650000146C9894810FFF70AFF0020BAE738B5BC
:1046600004460348807A28B94FF0FF3038BD000077
:1046700084000020022C06D0042C07D0082C08D07F
:10468000102C0CD108E0002000900BE008200090D6
:1046900008E01020009005E01820009002E04FF0A4
:1046A000FF30E3E700BFF948407A9DF80010B0EB17
:1046B000E10F01D10020D9E7F44A1268D179F34A19
:1046C000526810786B460122FFF772FA10B14FF072
:1046D000FF30CBE79DF80000C110EC48417200208C
:1046E000C4E738B50446E948807A10B94FF0FF3086
:1046F00038BDFA2C09D0B4F5FA7F09D0B4F57A7F29
:1047000009D0B4F5FA6F0CD108E0002000900BE05E
:104710000820009008E01020009005E0182000908C
:1047200002E04FF0FF30E3E700BFD848007A9DF881
:104730000010B0EBE10F01D10020D9E7D34A126895
:104740009179D24A526810786B460122FFF730FA0D
:1047500010B14FF0FF30CBE79DF80000C010CB49FF
:1047600008720020C4E71CB580208DF80000C74AFD
:104770001268917CC54A526810786B460122FFF797
:1047800017FA10B14FF0FF301CBD6420FBF7A5FEF7
:1047900000208DF80000BD4A1268917CBB4A526827
:1047A00010786B460122FFF703FA10B14FF0FF308B
:1047B000EAE7B64A1268917DB44A526810786B46AF
:1047C0000622FFF740F910B14FF0FF30DCE79DF80B
:1047D0000500C007400F9DF8031001F0010140EAF9
:1047E00041009DF8011001F0010140EA010494B17B
:1047F000012C03D10121A548C17431E0022C03D161
:104800000021A248C1742BE02146A1A003F034F896
:104810004FF0FF30B8E79D4A1268D1789B4A526842
:1048200010786B460122FFF70EF910B14FF0FF3000
:10483000AAE79DF8000000F00F042CB99E4803F091
:104840001BF84FF0FF309FE7042C06D19BA003F02C
:1048500013F801218D48C17402E000218B48C17416
:10486000FF218A488172FF2088490872FF2187480A
:104870004172C1724FF6FF71C181FF2101748174D1
:104880000121017380F82210002180F82310417566
:1048900001751630016041608160163880F824107F
:1048A00080F82510C1844FF4FA60FFF71AFF10B1A9
:1048B0004FF0FF3068E70220FFF7D1FE10B14FF054
:1048C000FF3061E72A20FFF7D2FD10B14FF0FF3033
:1048D0005AE73220FFF777FE10B14FF0FF3053E771
:1048E0000020FFF78FFD10B14FF0FF304CE70020A4
:1048F000FFF7F8FB10B14FF0FF3045E70020FFF75E
:104900008CFB002040E770477CB504460D465F48AD
:10491000807A00F0700010B94FF0FF307CBD5B4A28
:104920001268117B594A526810786B460622FFF7CD
:104930008AF810B14FF0FF30F0E79DF801009DF8C4
:10494000001040EA012000B220809DF803009DF88D
:10495000021040EA012000B260809DF805009DF839
:10496000041040EA012000B2A08015B12846FFF7EC
:10497000CAFF0020D2E77CB504460D464348807A42
:1049800000F0080010B94FF0FF307CBD3F4A1268BC
:10499000517B3E4A526810786B460622FFF753F867
:1049A00010B14FF0FF30F0E79DF801009DF80010C6
:1049B00040EA012000B220809DF803009DF802101B
:1049C00040EA012000B260809DF805009DF80410C7
:1049D00040EA012000B2A08015B12846FFF793FFFE
:1049E0000020D2E72DE9FE4F05460C462748807A85
:1049F00018B94FF0FF30BDE8FE8F244A1268917B52
:104A0000224A5268107802AB0222FFF71CF810B15C
:104A10004FF0FF30EFE79DF809009DF8081040EADD
:104A2000012006B214B12046FFF76DFF174949680F
:104A3000C88802F0FDFC154901904968B1F90800E9
:104A400002F0EDFC8346304602F0E9FC5946009046
:104A500002F0E7FA8246019902F01BFB81461F49EA
:104A600002F08DFA80464FF08F4102F0E0FA0746DF
:104A700002F0F4FC28600020BDE710B588B00446C1
:104A80001CB94FF0FF3008B010BD29E084000020B1
:104A9000556E737570706F7274656420736F667491
:104AA000776172652070726F6475637420726576C9
:104AB0002025642E0A0000004899000848616C66B1
:104AC0002073656E73697469766974792070617298
:104AD0007420666F756E642E0A00000000000C42A0
:104AE000206830B9606820B9A06810B9002008B00B
:104AF00010BDFA494968087806AB03221146FEF753
:104B0000A2FF10B14FF0FF30F1E79DF81800082127
:104B100001EB201000F00F00ADF800009DF8190027
:104B200001EB201000F00F00ADF802009DF81A0014
:104B300001EB201000F00F00ADF8040020684100E8
:104B4000BDF90000403091FBF0F000B2ADF810006C
:104B500060684100BDF90200403091FBF0F000B206
:104B6000ADF81200A0684100BDF90400403091FB8F
:104B7000F0F000B2ADF81400D8494968087806ABE7
:104B800006221146FEF75FFF10B14FF0FF30AEE78F
:104B90009DF819009DF8181040EA012000B2ADF808
:104BA00008009DF81B009DF81A1040EA012000B291
:104BB000ADF80A009DF81D009DF81C1040EA012088
:104BC00000B2ADF80C00BDF81000BDF808100844A4
:104BD00000B2ADF81000BDF81200BDF80A1008448C
:104BE00000B2ADF81200BDF81400BDF80C10084476
:104BF00000B2ADF81400BDF81000000A8DF81800DE
:104C0000BDF81000C0B28DF81900BDF81200000AFE
:104C10008DF81A00BDF81200C0B28DF81B00BDF867
:104C20001400000A8DF81C00BDF81400C0B28DF805
:104C30001D00AA494968087806AB06221146FEF70E
:104C4000B7FF10B14FF0FF3051E700204FE70146AA
:104C5000A248007A30B1012807D0022809D00328E1
:104C60000FD10AE0FA2008800EE04FF4FA700880B5
:104C70000AE04FF47A70088006E04FF4FA6008808A
:104C800002E00020088000BF00BF002070470146FE
:104C90009248407A30B1012807D0022808D0032872
:104CA0000CD108E0022008700BE00420087008E036
:104CB0000820087005E01020087002E04FF0FF3077
:104CC000704700BF8548C07C18B108784006000EC8
:104CD00008700020F4E701468048C07A082817D2FF
:104CE000DFE800F01704070A0D101318BC20088035
:104CF00013E06220088010E02A2008800DE01420D4
:104D000008800AE00A20088007E00520088004E007
:104D100000BF00BF0020088000BF00BF0020704718
:104D200001466E4890F8240010B14FF0FF307047F4
:104D30006A48C08908800020F9E701460020088001
:104D4000401E704701464FF0FF30704701466348F0
:104D5000007A30B1012807D0022808D003280CD1EE
:104D600008E05F4808600BE05E48086008E05E48C5
:104D7000086005E05D48086002E04FF0FF307047D2
:104D800000BF0020FBE701465448407A30B10128BB
:104D900008D002280AD0032810D10BE04FF480403D
:104DA00008800EE041F69C7008800AE04FF48050C5
:104DB000088006E04FF40060088002E04FF0FF300A
:104DC000704700BF4548C07C10B10888401008807B
:104DD0000020F5E701464148007C0870002070473C
:104DE00001463E48807A10B10120087001E00020A1
:104DF00008700020704738B504463848807A10B9EA
:104E00004FF0FF3038BD354A1268117C334A526882
:104E100010786B460222FEF716FE10B14FF0FF30FD
:104E2000F0E79DF801009DF8001040EA012000B273
:104E300020800020E6E72DE9FE4F0746884692468F
:104E40001D46DDF830B000260024244890F82400E8
:104E500010B1601EBDE8FE8F002028701F48807AC8
:104E600010B94FF0FF30F5E71C48007C10B94FF047
:104E7000FF30EFE71948007C00F0400008B1B01C9B
:104E8000C6B21648007C00F0200008B1B01CC6B2C3
:104E90001248007C00F0100008B1B01CC6B20F48E8
:104EA000007C00F0080008B1B01DC6B20B4A1268C1
:104EB000917A0A4A526810786B460222FEF7C3FDC7
:104EC00010B14FF0FF30C5E79DF801009DF80010CC
:104ED00040EA0129B1450BDA0020BBE7840000203D
:104EE00000000343000083423333034233338341E2
:104EF000FC4840684088B9EB600F17DDF94A12683A
:104F0000517CF84A526810786B460122FEF79BFDEF
:104F100010B14FF0FF309DE79DF8000000F0100049
:104F200020B1FFF783F96FF0010093E75046FFF7D8
:104F3000EAFCEC4A1268D17AEA4A526810786B4669
:104F40003246FEF780FD10B14FF0FF3082E799FB4B
:104F5000F6F0401E8BF8000000202870B4422AD0E2
:104F6000E048007C00F0080028B3601C1DF8000039
:104F70001DF8041040EA012000B2A8F80000E01C6F
:104F80001DF80010A01C1DF8000041EA002000B22E
:104F9000A8F80200601D1DF80010201D1DF800007B
:104FA00041EA002000B2A8F80400287840F0080088
:104FB0002870A01D84B2B44213D0CA48007C00F00F
:104FC000400070B1601C1DF800001DF8041040EA9C
:104FD000012000B23880287840F040002870A01CE2
:104FE00084B2B44213D0BF48007C00F0200070B1FE
:104FF000601C1DF800001DF8041040EA012000B2FA
:105000007880287840F020002870A01C84B2B44238
:1050100013D0B448007C00F0100070B1601C1DF883
:1050200000001DF8041040EA012000B2B880287882
:1050300040F010002870A01C84B200200AE7F8B5E8
:1050400004460F461646A74890F8240010B94FF0C2
:10505000FF30F8BDA348807A10B94FF0FF30F8E771
:10506000A04A1268917A9F4A526810786B460222D1
:10507000FEF7E9FC10B14FF0FF30EAE79DF80100C0
:105080009DF8001040EA0125A54203DA00203070A7
:10509000401EDEE7934840684088B5EB600F17DD9F
:1050A000904A1268517C8F4A526810786B460122F0
:1050B000FEF7C9FC10B14FF0FF30CAE79DF80000C1
:1050C00000F0100020B1FFF7B1F86FF00100C0E769
:1050D000E2B2844B1B68D97A824B5B6818783B46F6
:1050E000FEF7B1FC10B14FF0FF30B2E795FBF4F0E2
:1050F000401E30700020ACE701467A4880F822104C
:10510000002070477CB5054676494968087801ABB0
:1051100004220D21FEF797FC08B107207CBD9DF805
:105120000700C0F301109DF8041001F0E00140EA0F
:10513000E1008DF800009DF80700C0F381009DF8A4
:10514000051001F0E00140EAE1008DF801009DF852
:10515000070000F003009DF8061001F0E00140EAAE
:10516000E1008DF8020000241CE01DF8040018B9CD
:10517000002045F8240013E05B4845F8240006E0D1
:1051800055F82400594901F052FF45F824001DF854
:105190000400401EC0B20DF804000028F0D100BF8A
:1051A000601CC4B2032CE0DB0020B7E72DE9FE4F02
:1051B00006460F4600256846FFF7A4FF002442E09C
:1051C00056F8240057F82410A0EB010ABAF1000F9A
:1051D00001DB514601E0CAF10001084602F01FF967
:1051E00083464FF08F4101F054FF80465DF8240064
:1051F000002102F08FF916D05DF82410404601F02E
:1052000048FF82464FF07E5101F00BFF814629F0A6
:10521000004A3748416A504602F086F912D201200E
:10522000A04005430EE03248C169404602F072F9E1
:1052300005D32F48016A404602F076F902D20120D8
:10524000A0400543641C032CBADB2846BDE8FE8F52
:105250002DE9FC5F06460F4600252249496808787B
:1052600001AB03220D21FEF7EEFB10B10720BDE8D4
:10527000FC9F9DF8040000F01F008DF804009DF8CD
:10528000050000F01F008DF805009DF8060000F0F5
:105290001F008DF80600002462E056F8240057F83D
:1052A0002410A0EB010BBBF1000F01DB594601E01C
:1052B000CBF10001084602F0B2F84FF08F410090A8
:1052C00001F0E7FE814601A8005DC0B30849086807
:1052D00002F0AEF883465946064801F0DAFE8046F1
:1052E0000FE00000840000207B14AE3E1D5A843F76
:1052F000108B000800B04C45FE49404601F097FE77
:10530000804601A8005D401EC0B201A908550028D2
:10531000F2D14146484601F0BCFE83464FF07E5133
:1053200001F07FFE82462AF0004BF348816958461F
:1053300002F0FAF813D20120A04005430FE0FFE786
:10534000ED480169484602F0E5F805D3EA484169AD
:10535000484602F0E9F802D20120A0400543641C4F
:10536000032C9ADB284682E72DE9F04F87B00546EB
:105370000C46914601208DF8100000208DF8110098
:10538000DE4A1268917CDD4A5268107804AB022232
:10539000FEF70EFC20B14FF0FF3007B0BDE8F08FF4
:1053A000C820FBF79AF800208DF81000D34A126845
:1053B000D17BD24A5268107804AB0122FEF7F8FB89
:1053C00010B14FF0FF30E8E7CC4A12685179CB4A70
:1053D0005268107804AB0122FEF7EAFB10B14FF0DF
:1053E000FF30DAE7C54A1268917CC44A52681078E7
:1053F00004AB0122FEF7DCFB10B14FF0FF30CCE72D
:10540000BE4A1268D17DBD4A5268107804AB0122B1
:10541000FEF7CEFB10B14FF0FF30BEE7B74A12687F
:105420001179B64A5268107804AB0122FEF7C0FB2E
:1054300010B14FF0FF30B0E70C208DF81000AF4AEC
:1054400012681179AD4A5268107804AB0122FEF758
:10545000AFFB10B14FF0FF309FE70F20FBF73DF897
:10546000A648806A407A8DF81000A44A12689178A4
:10547000A24A5268107804AB0122FEF799FB10B1E2
:105480004FF0FF3089E79D48806A007A8DF8100060
:105490009A4A12685178994A5268107804AB0122EE
:1054A000FEF786FB10B14FF0FF3076E7B9F1000F41
:1054B00007D09248806A807A40F0E0008DF81000B2
:1054C00004E08E48806A807A8DF810008B4A12685A
:1054D00091798A4A5268107804AB0122FEF768FB82
:1054E00010B14FF0FF3058E7B9F1000F07D08348F3
:1054F000806AC07A40F0E0008DF8100003E07E483A
:10550000C07A8DF810007D4A1268D1797B4A5268C2
:10551000107804AB0122FEF74BFB10B14FF0FF30C7
:105520003BE7B9F1000F02D0C820FAF7D6FF4020C0
:105530008DF81000714A12681179704A526810781B
:1055400004AB0122FEF734FB10B14FF0FF3024E72B
:1055500078208DF81000694A12685179674A5268BC
:10556000107804AB0122FEF723FB10B14FF0FF309F
:1055700013E761498889FAF7B0FF00208DF8100021
:105580005E4A126851795D4A5268107804AB012274
:10559000FEF70EFB10B14FF0FF30FEE6574A1268DF
:1055A000917A564A5268107804AB0222FEF74BFA01
:1055B00010B14FF0FF30F0E69DF811009DF810108B
:1055C00040EA012B0C209BFBF0F0C6B20020A86043
:1055D00068602860A06060602060824665E0474A9D
:1055E0001268D17A454A5268107804AB0C22FEF753
:1055F0002AFA10B14FF0FF30CFE69DF811009DF868
:10560000101040EA012000B2ADF808009DF8130028
:105610009DF8121040EA012000B2ADF80A009DF892
:1056200015009DF8141040EA012000B2ADF80C00FE
:10563000BDF90810206808442060BDF90A106068B0
:1056400008446060BDF90C10A0680844A0609DF893
:1056500017009DF8161040EA012000B2ADF80000D6
:105660009DF819009DF8181040EA012000B2ADF82D
:1056700002009DF81B009DF81A1040EA012000B2BC
:10568000ADF80400BDF90010286808442860BDF991
:105690000210686808446860BDF90410A8680844EE
:1056A000A8600AF1010000F0FF0AB24597DB12483A
:1056B000D0F800C02868C117090441EA1041070466
:1056C00062460023384601F0E3FB32460023CDE971
:1056D000020101F0DDFB28600748D0F800C06868CF
:1056E000C117090441EA1041070462460023384605
:1056F00006E0000054E3853F108B00088400002082
:1057000001F0C6FB32460023CDE9020101F0C0FBE7
:105710006860FE48D0F800C0A868C117090441EAD3
:105720001041070462460023384601F0B1FB3246BF
:105730000023CDE9020101F0ABFBA860F348D0F8EB
:1057400004C02168C817000440EA11480F046246EB
:1057500000233846414601F09BFB32460023CDE949
:10576000020101F095FB2060E848D0F804C06068B1
:10577000C117090441EA1041070462460023384674
:1057800001F086FB32460023CDE9020101F080FBE7
:105790006060DE48D0F804C0A068C117090441EA7F
:1057A0001041070462460023384601F071FB32467F
:1057B0000023CDE9020101F06BFBA060A068002886
:1057C00004DDA068A0F58030A06003E0A06800F5CB
:1057D0008030A0600020E0E538B50446CC4890F861
:1057E0002400A04201D1002038BD24B3C84890F85D
:1057F000250010B94FF0FF30F6E70020FEF74AFB16
:105800000020FEF76FFCC249C88CFEF7DCFE0020CA
:105810000090BF49496808786B4601222321FEF7B2
:10582000C7F90121BA4880F824100120FEF732FBA5
:10583000FEF7FCFC13E00020FEF72CFBB448007CD4
:105840000090B349496808786B4601222321FEF78E
:10585000AFF90021AE4880F82410FEF7E7FC0020E5
:10586000C2E72DE9F04F8DB083460F4602200C9021
:10587000A74890F8240020B10020FFF7ADFF0126D3
:1058800000E0002603A8FFF7E2F905A8FFF7FFF9FB
:1058900001A8FFF720FA02A8FFF742FA9C4890F807
:1058A0000AA004A8FFF796FA002407E00022394670
:1058B0005846FFF759FD00B902E0641C022CF5DBE5
:1058C00000BF022C01D1002528E0002407E00122BE
:1058D00006A909A8FFF748FD00B902E0641C022CE4
:1058E000F5DB00BF022C01D1002517E006A93846E0
:1058F000FFF75CFC00F0FF0809A95846FFF7A8FC79
:1059000000F0FF090025B9F1000F01D145F00105B4
:10591000B8F1000F01D145F0020500BFFF207C491E
:105920000872FF217A484172C1724FF6FF71C1813E
:10593000FF218172017401210173BDF80C00FEF793
:10594000D0FE9DF81400FEF78AFEBDF80400FEF7B5
:105950008EFDBDF80800FEF736FE5046FEF75DFBF3
:105960009DF81000FEF74EFD16B10120FFF734FF41
:1059700028460DB0BDE8F08FF8B504460D46164632
:1059800016B94FF0FF30F8BD6148807A10B94FF07A
:10599000FF30F8E720128DF80000E0B28DF801002A
:1059A0009DF8010028445A4949684989884202DD26
:1059B0004FF0FF30E7E7564A1268117E544A5268AA
:1059C00010786B460222FEF7F3F810B14FF0FF306B
:1059D000D9E7EAB24E4B1B68597D4D4B5B6818788E
:1059E0003346FEF7E5F810B14FF0FF30CBE700206B
:1059F000C9E7F8B504460D46164616B94FF0FF3014
:105A0000F8BD4348807A10B94FF0FF30F8E7201214
:105A10008DF80000E0B28DF801009DF801002844E7
:105A20003B4949684989884202DD4FF0FF30E7E78A
:105A3000374A1268117E364A526810786B46022245
:105A4000FEF7B6F810B14FF0FF30D9E7EAB2304BAD
:105A50001B68597D2E4B5B6818783346FDF7F3FFC2
:105A600010B14FF0FF30CBE70020C9E72DE9F0433C
:105A700085B005460E4690469946254890F8250083
:105A800020B14FF0FF3005B0BDE8F08316B94FF0FC
:105A9000FF30F8E7002423E0281B102801DD102048
:105AA00000E0281B87B2321939462046FFF764FF11
:105AB00010B14FF0FF30E6E701AA39462046FFF764
:105AC00098FF10B14FF0FF30DDE730193A4601A9D9
:105AD00001F048FA10B16FF00100D4E7E01984B288
